{
  "_format": "hh3-artifact-1",
  "contractName": "Permit2TransferValidator",
  "sourceName": "contracts/chainlink_permit2.sol",
  "abi": [
    {
      "anonymous": false,
      "inputs": [
        {
          "indexed": true,
          "internalType": "address",
          "name": "owner",
          "type": "address"
        },
        {
          "indexed": true,
          "internalType": "address",
          "name": "token",
          "type": "address"
        },
        {
          "indexed": true,
          "internalType": "address",
          "name": "spender",
          "type": "address"
        },
        {
          "indexed": false,
          "internalType": "uint160",
          "name": "amount",
          "type": "uint160"
        }
      ],
      "name": "PermitValidated",
      "type": "event"
    },
    {
      "anonymous": false,
      "inputs": [
        {
          "indexed": true,
          "internalType": "address",
          "name": "from",
          "type": "address"
        },
        {
          "indexed": true,
          "internalType": "address",
          "name": "token",
          "type": "address"
        },
        {
          "indexed": true,
          "internalType": "uint32",
          "name": "dstEid",
          "type": "uint32"
        },
        {
          "indexed": false,
          "internalType": "address",
          "name": "dstAddress",
          "type": "address"
        },
        {
          "indexed": false,
          "internalType": "uint256",
          "name": "amount",
          "type": "uint256"
        },
        {
          "indexed": false,
          "internalType": "bytes32",
          "name": "messageId",
          "type": "bytes32"
        }
      ],
      "name": "TokensBridged",
      "type": "event"
    },
    {
      "anonymous": false,
      "inputs": [
        {
          "indexed": true,
          "internalType": "address",
          "name": "from",
          "type": "address"
        },
        {
          "indexed": true,
          "internalType": "address",
          "name": "to",
          "type": "address"
        },
        {
          "indexed": true,
          "internalType": "address",
          "name": "token",
          "type": "address"
        },
        {
          "indexed": false,
          "internalType": "uint160",
          "name": "amount",
          "type": "uint160"
        }
      ],
      "name": "TokensTransferred",
      "type": "event"
    },
    {
      "inputs": [],
      "name": "PERMIT2",
      "outputs": [
        {
          "internalType": "contract IAllowanceTransfer",
          "name": "",
          "type": "address"
        }
      ],
      "stateMutability": "view",
      "type": "function"
    },
    {
      "inputs": [],
      "name": "PERMIT2_SIGNATURE",
      "outputs": [
        {
          "internalType": "contract ISignatureTransfer",
          "name": "",
          "type": "address"
        }
      ],
      "stateMutability": "view",
      "type": "function"
    },
    {
      "inputs": [
        {
          "internalType": "address",
          "name": "token",
          "type": "address"
        },
        {
          "internalType": "uint32",
          "name": "dstEid",
          "type": "uint32"
        },
        {
          "internalType": "address",
          "name": "dstAddress",
          "type": "address"
        },
        {
          "internalType": "uint256",
          "name": "amount",
          "type": "uint256"
        },
        {
          "internalType": "uint256",
          "name": "minAmountLD",
          "type": "uint256"
        },
        {
          "internalType": "bytes",
          "name": "extraOptions",
          "type": "bytes"
        }
      ],
      "name": "quoteBridge",
      "outputs": [
        {
          "internalType": "uint256",
          "name": "nativeFee",
          "type": "uint256"
        }
      ],
      "stateMutability": "view",
      "type": "function"
    },
    {
      "inputs": [
        {
          "components": [
            {
              "components": [
                {
                  "internalType": "address",
                  "name": "token",
                  "type": "address"
                },
                {
                  "internalType": "uint160",
                  "name": "amount",
                  "type": "uint160"
                },
                {
                  "internalType": "uint48",
                  "name": "expiration",
                  "type": "uint48"
                },
                {
                  "internalType": "uint48",
                  "name": "nonce",
                  "type": "uint48"
                }
              ],
              "internalType": "struct IAllowanceTransfer.PermitDetails",
              "name": "details",
              "type": "tuple"
            },
            {
              "internalType": "address",
              "name": "spender",
              "type": "address"
            },
            {
              "internalType": "uint256",
              "name": "sigDeadline",
              "type": "uint256"
            }
          ],
          "internalType": "struct IAllowanceTransfer.PermitSingle",
          "name": "permitSingle",
          "type": "tuple"
        },
        {
          "internalType": "bytes",
          "name": "signature",
          "type": "bytes"
        },
        {
          "internalType": "address",
          "name": "owner",
          "type": "address"
        },
        {
          "internalType": "uint160",
          "name": "amount",
          "type": "uint160"
        },
        {
          "internalType": "uint32",
          "name": "dstEid",
          "type": "uint32"
        },
        {
          "internalType": "address",
          "name": "dstAddress",
          "type": "address"
        },
        {
          "internalType": "uint256",
          "name": "minAmountLD",
          "type": "uint256"
        },
        {
          "internalType": "bytes",
          "name": "extraOptions",
          "type": "bytes"
        }
      ],
      "name": "receiveAndBridge",
      "outputs": [],
      "stateMutability": "payable",
      "type": "function"
    },
    {
      "inputs": [
        {
          "components": [
            {
              "components": [
                {
                  "internalType": "address",
                  "name": "token",
                  "type": "address"
                },
                {
                  "internalType": "uint256",
                  "name": "amount",
                  "type": "uint256"
                }
              ],
              "internalType": "struct ISignatureTransfer.TokenPermissions",
              "name": "permitted",
              "type": "tuple"
            },
            {
              "internalType": "uint256",
              "name": "nonce",
              "type": "uint256"
            },
            {
              "internalType": "uint256",
              "name": "deadline",
              "type": "uint256"
            }
          ],
          "internalType": "struct ISignatureTransfer.PermitTransferFrom",
          "name": "permit",
          "type": "tuple"
        },
        {
          "internalType": "address",
          "name": "owner",
          "type": "address"
        },
        {
          "internalType": "bytes",
          "name": "signature",
          "type": "bytes"
        },
        {
          "internalType": "uint32",
          "name": "dstEid",
          "type": "uint32"
        },
        {
          "internalType": "address",
          "name": "dstAddress",
          "type": "address"
        },
        {
          "internalType": "uint256",
          "name": "minAmountLD",
          "type": "uint256"
        },
        {
          "internalType": "bytes",
          "name": "extraOptions",
          "type": "bytes"
        }
      ],
      "name": "receiveAndBridgeGasless",
      "outputs": [],
      "stateMutability": "payable",
      "type": "function"
    },
    {
      "inputs": [
        {
          "components": [
            {
              "components": [
                {
                  "internalType": "address",
                  "name": "token",
                  "type": "address"
                },
                {
                  "internalType": "uint160",
                  "name": "amount",
                  "type": "uint160"
                },
                {
                  "internalType": "uint48",
                  "name": "expiration",
                  "type": "uint48"
                },
                {
                  "internalType": "uint48",
                  "name": "nonce",
                  "type": "uint48"
                }
              ],
              "internalType": "struct IAllowanceTransfer.PermitDetails",
              "name": "details",
              "type": "tuple"
            },
            {
              "internalType": "address",
              "name": "spender",
              "type": "address"
            },
            {
              "internalType": "uint256",
              "name": "sigDeadline",
              "type": "uint256"
            }
          ],
          "internalType": "struct IAllowanceTransfer.PermitSingle",
          "name": "permitSingle",
          "type": "tuple"
        },
        {
          "internalType": "bytes",
          "name": "signature",
          "type": "bytes"
        },
        {
          "internalType": "address",
          "name": "owner",
          "type": "address"
        },
        {
          "internalType": "uint160",
          "name": "amount",
          "type": "uint160"
        }
      ],
      "name": "receiveTokensWithPermit",
      "outputs": [],
      "stateMutability": "nonpayable",
      "type": "function"
    },
    {
      "inputs": [
        {
          "components": [
            {
              "components": [
                {
                  "internalType": "address",
                  "name": "token",
                  "type": "address"
                },
                {
                  "internalType": "uint160",
                  "name": "amount",
                  "type": "uint160"
                },
                {
                  "internalType": "uint48",
                  "name": "expiration",
                  "type": "uint48"
                },
                {
                  "internalType": "uint48",
                  "name": "nonce",
                  "type": "uint48"
                }
              ],
              "internalType": "struct IAllowanceTransfer.PermitDetails",
              "name": "details",
              "type": "tuple"
            },
            {
              "internalType": "address",
              "name": "spender",
              "type": "address"
            },
            {
              "internalType": "uint256",
              "name": "sigDeadline",
              "type": "uint256"
            }
          ],
          "internalType": "struct IAllowanceTransfer.PermitSingle",
          "name": "permitSingle",
          "type": "tuple"
        },
        {
          "internalType": "bytes",
          "name": "signature",
          "type": "bytes"
        },
        {
          "internalType": "address",
          "name": "owner",
          "type": "address"
        }
      ],
      "name": "validatePermit",
      "outputs": [],
      "stateMutability": "nonpayable",
      "type": "function"
    },
    {
      "inputs": [
        {
          "components": [
            {
              "components": [
                {
                  "internalType": "address",
                  "name": "token",
                  "type": "address"
                },
                {
                  "internalType": "uint160",
                  "name": "amount",
                  "type": "uint160"
                },
                {
                  "internalType": "uint48",
                  "name": "expiration",
                  "type": "uint48"
                },
                {
                  "internalType": "uint48",
                  "name": "nonce",
                  "type": "uint48"
                }
              ],
              "internalType": "struct IAllowanceTransfer.PermitDetails",
              "name": "details",
              "type": "tuple"
            },
            {
              "internalType": "address",
              "name": "spender",
              "type": "address"
            },
            {
              "internalType": "uint256",
              "name": "sigDeadline",
              "type": "uint256"
            }
          ],
          "internalType": "struct IAllowanceTransfer.PermitSingle",
          "name": "permitSingle",
          "type": "tuple"
        },
        {
          "internalType": "bytes",
          "name": "signature",
          "type": "bytes"
        },
        {
          "internalType": "address",
          "name": "owner",
          "type": "address"
        },
        {
          "internalType": "address",
          "name": "recipient",
          "type": "address"
        },
        {
          "internalType": "uint160",
          "name": "amount",
          "type": "uint160"
        }
      ],
      "name": "validatePermitAndTransfer",
      "outputs": [],
      "stateMutability": "nonpayable",
      "type": "function"
    },
    {
      "inputs": [
        {
          "internalType": "address",
          "name": "token",
          "type": "address"
        },
        {
          "internalType": "address",
          "name": "to",
          "type": "address"
        },
        {
          "internalType": "uint256",
          "name": "amount",
          "type": "uint256"
        }
      ],
      "name": "withdrawTokens",
      "outputs": [],
      "stateMutability": "nonpayable",
      "type": "function"
    }
  ],
  "bytecode": "0x6080806040523460155761150a908161001a8239f35b5f80fdfe60806040526004361015610011575f80fd5b5f5f3560e01c80632cd9915a14610cfa57806335a3126914610ba95780635e35359e14610a0e5780636afdd8501461042d57806371a910b7146107205780639700169b14610457578063a76ad5761461042d578063ce98139a146101a55763eff6d95e1461007d575f80fd5b346101a2573660031901610100811261018c5760c0136101a2578060c4356001600160401b03811161019f576100b7903690600401610ec8565b6100c2929192610ef5565b926e22d473030f116ddee9f6b43ac78ba33b1561019b576040516302b67b5760e41b8152918391839182916100fc91908860048501611105565b0381836e22d473030f116ddee9f6b43ac78ba35af1801561019057610177575b5050610126610fd4565b9061012f610fea565b7f660b4d6fde76223956da452a0f01864370af4e53949f6aa665669f54bad5bad0602061015a610f72565b6040516001600160a01b039182168152938116958116941692a480f35b81610181916110c4565b61018c57815f61011c565b5080fd5b6040513d84823e3d90fd5b8280fd5b50fd5b80fd5b50346101a2573660031901610140811261018c5760c0136101a25760c4356001600160401b03811161018c576101df903690600401610ec8565b6101e7610ef5565b916101f0610f21565b610124356001600160a01b0381169291838203610429576001600160a01b0381169485156103f0573086146103ab57879361022c861515610f38565b6102486001600160a01b0361023f610f72565b16871115610f88565b6102636001600160a01b0361025b610fd4565b161515611000565b61027e306001600160a01b03610277610fea565b161461103c565b6e22d473030f116ddee9f6b43ac78ba33b156103a7576040516302b67b5760e41b8152918591839182916102b791908c60048501611105565b0381836e22d473030f116ddee9f6b43ac78ba35af190811561039c578491610387575b50506102e4610fd4565b916e22d473030f116ddee9f6b43ac78ba33b1561038357839161031c6040519485938493631b63c28b60e11b85528b600486016111ab565b0381836e22d473030f116ddee9f6b43ac78ba35af180156101905761036e575b50505f5160206114b55f395f51905f526020610356610fd4565b6040519384526001600160a01b03908116951692a480f35b81610378916110c4565b61038357835f61033c565b8380fd5b81610391916110c4565b61019b57825f6102da565b6040513d86823e3d90fd5b8480fd5b60405162461bcd60e51b815260206004820152601760248201527f43616e6e6f74207472616e7366657220746f2073656c660000000000000000006044820152606490fd5b60405162461bcd60e51b8152602060048201526011602482015270125b9d985b1a59081c9958da5c1a595b9d607a1b6044820152606490fd5b8680fd5b50346101a257806003193601126101a25760206040516e22d473030f116ddee9f6b43ac78ba38152f35b503660031901610140811261018c576080136101a2576084356001600160a01b0381169081810361019b5760a4356001600160401b038111610383576104a1903690600401610ec8565b92909160c43563ffffffff811694858203610429576104be610ef5565b92610124356001600160401b03811161071c576104df903690600401610ec8565b93909189602435986104f28a1515610f38565b6001600160a01b038816956105088715156112eb565b61051b6001600160a01b0361025b610fd4565b604051610527816110a9565b30815260208101928c84526e22d473030f116ddee9f6b43ac78ba33b156103a7576105b98d9186948e604051978896879663187945bd60e11b885260018060a01b03610571610f0b565b166004890152602488015260448035908801526064803590880152516001600160a01b031660848701525160a486015260c485015261010060e48501526101048401916110e5565b0381836e22d473030f116ddee9f6b43ac78ba35af1801561019057610703575b5050610659946105e7610fd4565b6040516001600160a01b038b811682529091169030908a905f5160206114b55f395f51905f5290602090a46001600160a01b03610622610fd4565b169360208a8d60405180809b819463095ea7b360e01b83528b6004840160209093929193604081019460018060a01b031681520152565b0391895af1948c86156106f7577fec3231568ffa8549cba7b09f87682262ed06a768df661c9699b953998998612d996060996106a4988e93506106ca575b5034966101043593611337565b6001600160a01b036106b4610fd4565b169560405192835260208301526040820152a480f35b6106eb9060203d6020116106f0575b6106e381836110c4565b8101906112d3565b610697565b503d6106d9565b604051903d90823e3d90fd5b8161070d916110c4565b61071857895f6105d9565b8980fd5b8880fd5b5036600319016101a0811261018c5760c0136101a25760c4356001600160401b03811161018c57610755903690600401610ec8565b9061075e610ef5565b610766610f21565b9084610124359163ffffffff83169586840361019b5761014435936001600160a01b038516928386036103a757610184356001600160401b0381116109fb576107b3903690600401610ec8565b6001600160a01b0389169990989194906107ce8b1515610f38565b6107d98715156112eb565b6107f56001600160a01b036107ec610f72565b168c1115610f88565b6108086001600160a01b0361025b610fd4565b610823610813610fea565b6001600160a01b0316301461103c565b6e22d473030f116ddee9f6b43ac78ba33b15610a0a576040516302b67b5760e41b81529188918391829161085c91908860048501611105565b0381836e22d473030f116ddee9f6b43ac78ba35af19081156109ff5787916109e6575b5050610889610fd4565b906e22d473030f116ddee9f6b43ac78ba33b1561042957604051631b63c28b60e11b8152918791839182916108c491903088600486016111ab565b0381836e22d473030f116ddee9f6b43ac78ba35af19081156109db5786916109c6575b50506108f1610fd4565b6040518981526001600160a01b038381169992169030908a905f5160206114b55f395f51905f5290602090a46001600160a01b0361092d610fd4565b169360208a604461093c610fd4565b6040519a8b93849263095ea7b360e01b845260018060a01b031660048401526024830152895af1948c86156106f7577fec3231568ffa8549cba7b09f87682262ed06a768df661c9699b953998998612d996060996106a4988e93506109a9575b5034966101643593611337565b6109c19060203d6020116106f0576106e381836110c4565b61099c565b816109d0916110c4565b6103a757845f6108e7565b6040513d88823e3d90fd5b816109f0916110c4565b6109fb57855f61087f565b8580fd5b6040513d89823e3d90fd5b8780fd5b50346101a25760603660031901126101a257610a28610f0b565b6024356001600160a01b038116918282036103835760443592303314908115610b9f575b5015610b69576040516370a0823160e01b81523060048201526001600160a01b03919091169290602081602481875afa8015610b5e5782918691610b29575b5010610aed5760405163095ea7b360e01b81526001600160a01b039290921660048301526024820152906020908290604490829086905af1801561019057610ad1575080f35b610ae99060203d6020116106f0576106e381836110c4565b5080f35b60405162461bcd60e51b8152602060048201526014602482015273496e73756666696369656e742062616c616e636560601b6044820152606490fd5b9150506020813d602011610b56575b81610b45602093836110c4565b810103126103a7578190515f610a8b565b3d9150610b38565b6040513d87823e3d90fd5b60405162461bcd60e51b815260206004820152600e60248201526d139bdd08185d5d1a1bdc9a5e995960921b6044820152606490fd5b905033145f610a4c565b50346101a25760c03660031901126101a257610bc3610f0b565b60243563ffffffff811680910361019b576044356001600160a01b03811691908290036103835760a435926001600160401b0384116103a757610c3e604093610c13610c8e963690600401610ec8565b9091865195610c218761107a565b8652602086015260643586860152608435606086015236916111d5565b60808301528251610c506020826110c4565b85815260a08301528251610c656020826110c4565b85815260c083015282518080958194633b6f743b60e01b83528660048401526044830190611266565b6024820188905203916001600160a01b03165afa908115610190578291610cbc575b60208251604051908152f35b905060403d604011610cf3575b610cd381836110c4565b8101916040828403126101a25750602091610ced9161121a565b5f610cb0565b503d610cc9565b5034610ec45736600319016101208112610ec45760c013610ec45760c4356001600160401b038111610ec457610d34903690600401610ec8565b610d3c610ef5565b90610d45610f21565b6001600160a01b03811693909190610d5e851515610f38565b610d7a6001600160a01b03610d71610f72565b16861115610f88565b610d8d6001600160a01b0361025b610fd4565b610d98610813610fea565b6e22d473030f116ddee9f6b43ac78ba33b15610ec4576040516302b67b5760e41b8152915f9183918291610dd191908860048501611105565b0381836e22d473030f116ddee9f6b43ac78ba35af18015610eb957610ea4575b508390610dfc610fd4565b906e22d473030f116ddee9f6b43ac78ba33b1561019b57604051631b63c28b60e11b815291839183918291610e3791903089600486016111ab565b0381836e22d473030f116ddee9f6b43ac78ba35af1801561019057610e8f575b5050610e61610fd4565b6040519283526001600160a01b03908116923092909116905f5160206114b55f395f51905f5290602090a480f35b81610e99916110c4565b61019b57825f610e57565b610eb19194505f906110c4565b5f925f610df1565b6040513d5f823e3d90fd5b5f80fd5b9181601f84011215610ec4578235916001600160401b038311610ec45760208381860195010111610ec457565b60e435906001600160a01b0382168203610ec457565b600435906001600160a01b0382168203610ec457565b61010435906001600160a01b0382168203610ec457565b15610f3f57565b60405162461bcd60e51b815260206004820152600b60248201526a16995c9bc8185b5bdd5b9d60aa1b6044820152606490fd5b6024356001600160a01b0381168103610ec45790565b15610f8f57565b60405162461bcd60e51b815260206004820152601860248201527f416d6f756e742065786365656473207065726d697474656400000000000000006044820152606490fd5b6004356001600160a01b0381168103610ec45790565b6084356001600160a01b0381168103610ec45790565b1561100757565b60405162461bcd60e51b815260206004820152600d60248201526c24b73b30b634b2103a37b5b2b760991b6044820152606490fd5b1561104357565b60405162461bcd60e51b815260206004820152600f60248201526e24b73b30b634b21039b832b73232b960891b6044820152606490fd5b60e081019081106001600160401b0382111761109557604052565b634e487b7160e01b5f52604160045260245ffd5b604081019081106001600160401b0382111761109557604052565b90601f801991011681019081106001600160401b0382111761109557604052565b908060209392818452848401375f828201840152601f01601f1916010190565b6001600160a01b039182168152929060043590811690819003610ec45760208401526024356001600160a01b03811690819003610ec457604084015260443565ffffffffffff8116809103610ec457606084015260643565ffffffffffff8116809103610ec45760808401526084356001600160a01b03811690819003610ec457836101009160a06111a896015260a43560c08201528160e082015201916110e5565b90565b6001600160a01b039182168152918116602083015291821660408201529116606082015260800190565b9291926001600160401b03821161109557604051916111fe601f8201601f1916602001846110c4565b829481845281830111610ec4578281602093845f960137010152565b9190826040910312610ec457604051611232816110a9565b6020808294805184520151910152565b805180835260209291819084018484015e5f828201840152601f01601f1916010190565b6111a89163ffffffff825116815260208201516020820152604082015160408201526060820151606082015260c06112c26112b0608085015160e0608086015260e0850190611242565b60a085015184820360a0860152611242565b9201519060c0818403910152611242565b90816020910312610ec457518015158103610ec45790565b156112f257565b60405162461bcd60e51b815260206004820152601b60248201527f496e76616c69642064657374696e6174696f6e206164647265737300000000006044820152606490fd5b936113799360c09792969399989963ffffffff604051986113578a61107a565b1688526001600160a01b031660208801526040870152606086015236916111d5565b60808301526113e960209460405161139187826110c4565b5f815260a08501526040516113a687826110c4565b5f815285850152604051936113ba856110a9565b818552868501945f86526040519889968795869463c7c7f5b360e01b8652608060048701526084860190611266565b925160248501525160448401526001600160a01b03908116606484015291900393165af1918215610eb9575f92611421575b50505190565b90915060c03d60c0116114ad575b61143981836110c4565b810181810360c08112610ec457608013610ec45760405192606084018481106001600160401b03821117611095576040528251845280830151926001600160401b0384168403610ec4576114a59360809286015261149a836040830161121a565b60408601520161121a565b505f8061141b565b503d61142f56fe144dd933f2f778c1c74b636d1626785a75fcab84d70e58023131596c68836678a26469706673582212202bfb5189b13fd0673142b4a534b37d4ec5e5d928095197f56a89124accb1414664736f6c634300081c0033",
  "linkReferences": {},
  "deployedLinkReferences": {},
  "immutableReferences": {},
  "inputSourceName": "project/contracts/chainlink_permit2.sol",
  "buildInfoId": "solc-0_8_28-1e21a6ecf0ad573209421f3af4064500fa10c625"
}