{
  "_format": "hh3-artifact-1",
  "contractName": "Permit2TransferValidator",
  "sourceName": "contracts/chainlink_permit2.sol",
  "abi": [
    {
      "anonymous": false,
      "inputs": [
        {
          "indexed": true,
          "internalType": "address",
          "name": "owner",
          "type": "address"
        },
        {
          "indexed": true,
          "internalType": "address",
          "name": "token",
          "type": "address"
        },
        {
          "indexed": true,
          "internalType": "address",
          "name": "spender",
          "type": "address"
        },
        {
          "indexed": false,
          "internalType": "uint160",
          "name": "amount",
          "type": "uint160"
        }
      ],
      "name": "PermitValidated",
      "type": "event"
    },
    {
      "anonymous": false,
      "inputs": [
        {
          "indexed": true,
          "internalType": "address",
          "name": "from",
          "type": "address"
        },
        {
          "indexed": true,
          "internalType": "address",
          "name": "token",
          "type": "address"
        },
        {
          "indexed": true,
          "internalType": "uint32",
          "name": "dstEid",
          "type": "uint32"
        },
        {
          "indexed": false,
          "internalType": "address",
          "name": "dstAddress",
          "type": "address"
        },
        {
          "indexed": false,
          "internalType": "uint256",
          "name": "amount",
          "type": "uint256"
        },
        {
          "indexed": false,
          "internalType": "bytes32",
          "name": "messageId",
          "type": "bytes32"
        }
      ],
      "name": "TokensBridged",
      "type": "event"
    },
    {
      "anonymous": false,
      "inputs": [
        {
          "indexed": true,
          "internalType": "address",
          "name": "from",
          "type": "address"
        },
        {
          "indexed": true,
          "internalType": "address",
          "name": "to",
          "type": "address"
        },
        {
          "indexed": true,
          "internalType": "address",
          "name": "token",
          "type": "address"
        },
        {
          "indexed": false,
          "internalType": "uint160",
          "name": "amount",
          "type": "uint160"
        }
      ],
      "name": "TokensTransferred",
      "type": "event"
    },
    {
      "inputs": [],
      "name": "PERMIT2",
      "outputs": [
        {
          "internalType": "contract IAllowanceTransfer",
          "name": "",
          "type": "address"
        }
      ],
      "stateMutability": "view",
      "type": "function"
    },
    {
      "inputs": [
        {
          "internalType": "address",
          "name": "token",
          "type": "address"
        },
        {
          "internalType": "uint32",
          "name": "dstEid",
          "type": "uint32"
        },
        {
          "internalType": "address",
          "name": "dstAddress",
          "type": "address"
        },
        {
          "internalType": "uint256",
          "name": "amount",
          "type": "uint256"
        },
        {
          "internalType": "uint256",
          "name": "minAmountLD",
          "type": "uint256"
        },
        {
          "internalType": "bytes",
          "name": "extraOptions",
          "type": "bytes"
        }
      ],
      "name": "quoteBridge",
      "outputs": [
        {
          "internalType": "uint256",
          "name": "nativeFee",
          "type": "uint256"
        }
      ],
      "stateMutability": "view",
      "type": "function"
    },
    {
      "inputs": [
        {
          "components": [
            {
              "components": [
                {
                  "internalType": "address",
                  "name": "token",
                  "type": "address"
                },
                {
                  "internalType": "uint160",
                  "name": "amount",
                  "type": "uint160"
                },
                {
                  "internalType": "uint48",
                  "name": "expiration",
                  "type": "uint48"
                },
                {
                  "internalType": "uint48",
                  "name": "nonce",
                  "type": "uint48"
                }
              ],
              "internalType": "struct IAllowanceTransfer.PermitDetails",
              "name": "details",
              "type": "tuple"
            },
            {
              "internalType": "address",
              "name": "spender",
              "type": "address"
            },
            {
              "internalType": "uint256",
              "name": "sigDeadline",
              "type": "uint256"
            }
          ],
          "internalType": "struct IAllowanceTransfer.PermitSingle",
          "name": "permitSingle",
          "type": "tuple"
        },
        {
          "internalType": "bytes",
          "name": "signature",
          "type": "bytes"
        },
        {
          "internalType": "address",
          "name": "owner",
          "type": "address"
        },
        {
          "internalType": "uint160",
          "name": "amount",
          "type": "uint160"
        },
        {
          "internalType": "uint32",
          "name": "dstEid",
          "type": "uint32"
        },
        {
          "internalType": "address",
          "name": "dstAddress",
          "type": "address"
        },
        {
          "internalType": "uint256",
          "name": "minAmountLD",
          "type": "uint256"
        },
        {
          "internalType": "bytes",
          "name": "extraOptions",
          "type": "bytes"
        }
      ],
      "name": "receiveAndBridge",
      "outputs": [],
      "stateMutability": "payable",
      "type": "function"
    },
    {
      "inputs": [
        {
          "components": [
            {
              "components": [
                {
                  "internalType": "address",
                  "name": "token",
                  "type": "address"
                },
                {
                  "internalType": "uint160",
                  "name": "amount",
                  "type": "uint160"
                },
                {
                  "internalType": "uint48",
                  "name": "expiration",
                  "type": "uint48"
                },
                {
                  "internalType": "uint48",
                  "name": "nonce",
                  "type": "uint48"
                }
              ],
              "internalType": "struct IAllowanceTransfer.PermitDetails",
              "name": "details",
              "type": "tuple"
            },
            {
              "internalType": "address",
              "name": "spender",
              "type": "address"
            },
            {
              "internalType": "uint256",
              "name": "sigDeadline",
              "type": "uint256"
            }
          ],
          "internalType": "struct IAllowanceTransfer.PermitSingle",
          "name": "permitSingle",
          "type": "tuple"
        },
        {
          "internalType": "bytes",
          "name": "signature",
          "type": "bytes"
        },
        {
          "internalType": "address",
          "name": "owner",
          "type": "address"
        },
        {
          "internalType": "uint160",
          "name": "amount",
          "type": "uint160"
        }
      ],
      "name": "receiveTokensWithPermit",
      "outputs": [],
      "stateMutability": "nonpayable",
      "type": "function"
    },
    {
      "inputs": [
        {
          "components": [
            {
              "components": [
                {
                  "internalType": "address",
                  "name": "token",
                  "type": "address"
                },
                {
                  "internalType": "uint160",
                  "name": "amount",
                  "type": "uint160"
                },
                {
                  "internalType": "uint48",
                  "name": "expiration",
                  "type": "uint48"
                },
                {
                  "internalType": "uint48",
                  "name": "nonce",
                  "type": "uint48"
                }
              ],
              "internalType": "struct IAllowanceTransfer.PermitDetails",
              "name": "details",
              "type": "tuple"
            },
            {
              "internalType": "address",
              "name": "spender",
              "type": "address"
            },
            {
              "internalType": "uint256",
              "name": "sigDeadline",
              "type": "uint256"
            }
          ],
          "internalType": "struct IAllowanceTransfer.PermitSingle",
          "name": "permitSingle",
          "type": "tuple"
        },
        {
          "internalType": "bytes",
          "name": "signature",
          "type": "bytes"
        },
        {
          "internalType": "address",
          "name": "owner",
          "type": "address"
        }
      ],
      "name": "validatePermit",
      "outputs": [],
      "stateMutability": "nonpayable",
      "type": "function"
    },
    {
      "inputs": [
        {
          "components": [
            {
              "components": [
                {
                  "internalType": "address",
                  "name": "token",
                  "type": "address"
                },
                {
                  "internalType": "uint160",
                  "name": "amount",
                  "type": "uint160"
                },
                {
                  "internalType": "uint48",
                  "name": "expiration",
                  "type": "uint48"
                },
                {
                  "internalType": "uint48",
                  "name": "nonce",
                  "type": "uint48"
                }
              ],
              "internalType": "struct IAllowanceTransfer.PermitDetails",
              "name": "details",
              "type": "tuple"
            },
            {
              "internalType": "address",
              "name": "spender",
              "type": "address"
            },
            {
              "internalType": "uint256",
              "name": "sigDeadline",
              "type": "uint256"
            }
          ],
          "internalType": "struct IAllowanceTransfer.PermitSingle",
          "name": "permitSingle",
          "type": "tuple"
        },
        {
          "internalType": "bytes",
          "name": "signature",
          "type": "bytes"
        },
        {
          "internalType": "address",
          "name": "owner",
          "type": "address"
        },
        {
          "internalType": "address",
          "name": "recipient",
          "type": "address"
        },
        {
          "internalType": "uint160",
          "name": "amount",
          "type": "uint160"
        }
      ],
      "name": "validatePermitAndTransfer",
      "outputs": [],
      "stateMutability": "nonpayable",
      "type": "function"
    },
    {
      "inputs": [
        {
          "internalType": "address",
          "name": "token",
          "type": "address"
        },
        {
          "internalType": "address",
          "name": "to",
          "type": "address"
        },
        {
          "internalType": "uint256",
          "name": "amount",
          "type": "uint256"
        }
      ],
      "name": "withdrawTokens",
      "outputs": [],
      "stateMutability": "nonpayable",
      "type": "function"
    }
  ],
  "bytecode": "0x60808060405234601557611272908161001a8239f35b5f80fdfe60806040526004361015610011575f80fd5b5f5f3560e01c80632cd9915a14610c4057806335a3126914610aef5780635e35359e146109655780636afdd8501461093b57806371a910b71461042a578063ce98139a1461018f5763eff6d95e14610067575f80fd5b3461018c57366003190161010081126101765760c01361018c578060c4356001600160401b038111610189576100a1903690600401610e21565b6100ac929192610e4e565b926e22d473030f116ddee9f6b43ac78ba33b15610185576040516302b67b5760e41b8152918391839182916100e69190886004850161103e565b0381836e22d473030f116ddee9f6b43ac78ba35af1801561017a57610161575b5050610110610f2d565b90610119610f43565b7f660b4d6fde76223956da452a0f01864370af4e53949f6aa665669f54bad5bad06020610144610ecb565b6040516001600160a01b039182168152938116958116941692a480f35b8161016b9161101d565b61017657815f610106565b5080fd5b6040513d84823e3d90fd5b8280fd5b50fd5b80fd5b503461018c57366003190161014081126101765760c01361018c5760c4356001600160401b038111610176576101c9903690600401610e21565b6101d1610e4e565b916101da610e7a565b610124356001600160a01b0381169291838203610426576001600160a01b0381169485156103ed573086146103a8578793610216861515610e91565b6102326001600160a01b03610229610ecb565b16871115610ee1565b61024d6001600160a01b03610245610f2d565b161515610f59565b610268306001600160a01b03610261610f43565b1614610f95565b6e22d473030f116ddee9f6b43ac78ba33b156103a4576040516302b67b5760e41b8152918591839182916102a191908c6004850161103e565b0381836e22d473030f116ddee9f6b43ac78ba35af1908115610399578491610384575b50506102ce610f2d565b916e22d473030f116ddee9f6b43ac78ba33b156103805783916103066040519485938493631b63c28b60e11b85528b600486016110f9565b0381836e22d473030f116ddee9f6b43ac78ba35af1801561017a5761036b575b50507f144dd933f2f778c1c74b636d1626785a75fcab84d70e58023131596c688366786020610353610f2d565b6040519384526001600160a01b03908116951692a480f35b816103759161101d565b61038057835f610326565b8380fd5b8161038e9161101d565b61018557825f6102c4565b6040513d86823e3d90fd5b8480fd5b60405162461bcd60e51b815260206004820152601760248201527f43616e6e6f74207472616e7366657220746f2073656c660000000000000000006044820152606490fd5b60405162461bcd60e51b8152602060048201526011602482015270125b9d985b1a59081c9958da5c1a595b9d607a1b6044820152606490fd5b8680fd5b5036600319016101a081126101765760c01361018c5760c4356001600160401b0381116101765761045f903690600401610e21565b90610468610e4e565b610470610e7a565b92610124359363ffffffff851680950361093757610144356001600160a01b038116919082900361042657610184356001600160401b03811161086b576104bb903690600401610e21565b956001600160a01b03831694919290916104d6861515610e91565b84156108f25789926104fa6001600160a01b036104f1610ecb565b16881115610ee1565b61050d6001600160a01b03610245610f2d565b610528610518610f43565b6001600160a01b03163014610f95565b6e22d473030f116ddee9f6b43ac78ba33b15610380576040516302b67b5760e41b81529184918391829161056191908c6004850161103e565b0381836e22d473030f116ddee9f6b43ac78ba35af19081156108e75783916108d2575b505061058e610f2d565b906e22d473030f116ddee9f6b43ac78ba33b1561018557604051631b63c28b60e11b8152918391839182916105c99190308c600486016110f9565b0381836e22d473030f116ddee9f6b43ac78ba35af1801561017a576108bd575b50506105f3610f2d565b6040518481526001600160a01b039586169590911690309086907f144dd933f2f778c1c74b636d1626785a75fcab84d70e58023131596c6883667890602090a46001600160a01b03610643610f2d565b169061064d610f2d565b60405163095ea7b360e01b81526001600160a01b03909116600482015260248101859052906020826044818c875af19182156108b2576106b992610885575b506040519661069a88610fd3565b8888528460208901528560408901526101643560608901523691611123565b608086015260c06020956040516106d0888261101d565b89815260a08201526040516106e5888261101d565b89815282820152604051926106f984611002565b3484528784018a815260405163c7c7f5b360e01b815260806004820152948593849283929161072c9060848501906111b4565b91516024840152516044830152896064830152039134905af190811561087a5787916107a0575b50517fec3231568ffa8549cba7b09f87682262ed06a768df661c9699b953998998612d9260609291906001600160a01b0361078c610f2d565b16966040519384528301526040820152a480f35b91905060c03d60c011610873575b6107b8818461101d565b82019282840360c0811261086f5760801361086b57604051606081018181106001600160401b03821117610857576040528351815286840151936001600160401b0385168503610853577fec3231568ffa8549cba7b09f87682262ed06a768df661c9699b953998998612d956080610849926060978b86015261083e8360408301611168565b604086015201611168565b5091925092610753565b8980fd5b634e487b7160e01b8a52604160045260248afd5b8780fd5b8880fd5b503d6107ae565b6040513d89823e3d90fd5b6108a69060203d6020116108ab575b61089e818361101d565b810190611224565b61068c565b503d610894565b6040513d8b823e3d90fd5b816108c79161101d565b61042657865f6105e9565b816108dc9161101d565b61017657815f610584565b6040513d85823e3d90fd5b60405162461bcd60e51b815260206004820152601b60248201527f496e76616c69642064657374696e6174696f6e206164647265737300000000006044820152606490fd5b8580fd5b503461018c578060031936011261018c5760206040516e22d473030f116ddee9f6b43ac78ba38152f35b503461018c57606036600319011261018c5761097f610e64565b6024356001600160a01b0381169081900361018557604435913033148015610ae6575b15610ab0576040516370a0823160e01b81523060048201526001600160a01b03919091169290602081602481875afa8015610aa55782918691610a70575b5010610a3457604460209285604051958694859363095ea7b360e01b8552600485015260248401525af1801561017a57610a18575080f35b610a309060203d6020116108ab5761089e818361101d565b5080f35b60405162461bcd60e51b8152602060048201526014602482015273496e73756666696369656e742062616c616e636560601b6044820152606490fd5b9150506020813d602011610a9d575b81610a8c6020938361101d565b810103126103a4578190515f6109e0565b3d9150610a7f565b6040513d87823e3d90fd5b60405162461bcd60e51b815260206004820152600e60248201526d139bdd08185d5d1a1bdc9a5e995960921b6044820152606490fd5b503382146109a2565b503461018c5760c036600319011261018c57610b09610e64565b60243563ffffffff8116809103610185576044356001600160a01b03811691908290036103805760a435926001600160401b0384116103a457610b84604093610b59610bd4963690600401610e21565b9091865195610b6787610fd3565b865260208601526064358686015260843560608601523691611123565b60808301528251610b9660208261101d565b85815260a08301528251610bab60208261101d565b85815260c083015282518080958194633b6f743b60e01b835286600484015260448301906111b4565b6024820188905203916001600160a01b03165afa90811561017a578291610c02575b60208251604051908152f35b905060403d604011610c39575b610c19818361101d565b81019160408284031261018c5750602091610c3391611168565b5f610bf6565b503d610c0f565b5034610e1d5736600319016101208112610e1d5760c013610e1d5760c4356001600160401b038111610e1d57610c7a903690600401610e21565b610c82610e4e565b90610c8b610e7a565b6001600160a01b03811693909190610ca4851515610e91565b610cc06001600160a01b03610cb7610ecb565b16861115610ee1565b610cd36001600160a01b03610245610f2d565b610cde610518610f43565b6e22d473030f116ddee9f6b43ac78ba33b15610e1d576040516302b67b5760e41b8152915f9183918291610d179190886004850161103e565b0381836e22d473030f116ddee9f6b43ac78ba35af18015610e1257610dfd575b508390610d42610f2d565b906e22d473030f116ddee9f6b43ac78ba33b1561018557604051631b63c28b60e11b815291839183918291610d7d91903089600486016110f9565b0381836e22d473030f116ddee9f6b43ac78ba35af1801561017a57610de8575b5050610da7610f2d565b6040519283526001600160a01b03908116923092909116907f144dd933f2f778c1c74b636d1626785a75fcab84d70e58023131596c6883667890602090a480f35b81610df29161101d565b61018557825f610d9d565b610e0a9194505f9061101d565b5f925f610d37565b6040513d5f823e3d90fd5b5f80fd5b9181601f84011215610e1d578235916001600160401b038311610e1d5760208381860195010111610e1d57565b60e435906001600160a01b0382168203610e1d57565b600435906001600160a01b0382168203610e1d57565b61010435906001600160a01b0382168203610e1d57565b15610e9857565b60405162461bcd60e51b815260206004820152600b60248201526a16995c9bc8185b5bdd5b9d60aa1b6044820152606490fd5b6024356001600160a01b0381168103610e1d5790565b15610ee857565b60405162461bcd60e51b815260206004820152601860248201527f416d6f756e742065786365656473207065726d697474656400000000000000006044820152606490fd5b6004356001600160a01b0381168103610e1d5790565b6084356001600160a01b0381168103610e1d5790565b15610f6057565b60405162461bcd60e51b815260206004820152600d60248201526c24b73b30b634b2103a37b5b2b760991b6044820152606490fd5b15610f9c57565b60405162461bcd60e51b815260206004820152600f60248201526e24b73b30b634b21039b832b73232b960891b6044820152606490fd5b60e081019081106001600160401b03821117610fee57604052565b634e487b7160e01b5f52604160045260245ffd5b604081019081106001600160401b03821117610fee57604052565b90601f801991011681019081106001600160401b03821117610fee57604052565b6001600160a01b03918216815291929060043590811690819003610e1d5760208301526024356001600160a01b03811690819003610e1d57604083015260443565ffffffffffff8116809103610e1d57606083015260643565ffffffffffff8116809103610e1d5760808301526084356001600160a01b03811690819003610e1d5761012093829160a085015260a43560c085015261010060e085015281610100850152848401375f828201840152601f01601f1916010190565b6001600160a01b039182168152918116602083015291821660408201529116606082015260800190565b9291926001600160401b038211610fee576040519161114c601f8201601f19166020018461101d565b829481845281830111610e1d578281602093845f960137010152565b9190826040910312610e1d5760405161118081611002565b6020808294805184520151910152565b805180835260209291819084018484015e5f828201840152601f01601f1916010190565b6112219163ffffffff825116815260208201516020820152604082015160408201526060820151606082015260c06112106111fe608085015160e0608086015260e0850190611190565b60a085015184820360a0860152611190565b9201519060c0818403910152611190565b90565b90816020910312610e1d57518015158103610e1d579056fea2646970667358221220c8bbdd8727c7ec519cee2cc163883c7d344e0d636620a9614e4a891452256d4d64736f6c634300081c0033",
  "linkReferences": {},
  "deployedLinkReferences": {},
  "immutableReferences": {},
  "inputSourceName": "project/contracts/chainlink_permit2.sol",
  "buildInfoId": "solc-0_8_28-4f689f946ad9d8a7f9bf016da8a9268251e0f15b"
}