{
  "_format": "hh3-artifact-1",
  "contractName": "Permit2TransferValidator",
  "sourceName": "contracts/chainlink_permit2.sol",
  "abi": [
    {
      "anonymous": false,
      "inputs": [
        {
          "indexed": true,
          "internalType": "address",
          "name": "owner",
          "type": "address"
        },
        {
          "indexed": true,
          "internalType": "address",
          "name": "token",
          "type": "address"
        },
        {
          "indexed": true,
          "internalType": "address",
          "name": "spender",
          "type": "address"
        },
        {
          "indexed": false,
          "internalType": "uint160",
          "name": "amount",
          "type": "uint160"
        }
      ],
      "name": "PermitValidated",
      "type": "event"
    },
    {
      "anonymous": false,
      "inputs": [
        {
          "indexed": true,
          "internalType": "address",
          "name": "from",
          "type": "address"
        },
        {
          "indexed": true,
          "internalType": "address",
          "name": "to",
          "type": "address"
        },
        {
          "indexed": true,
          "internalType": "address",
          "name": "token",
          "type": "address"
        },
        {
          "indexed": false,
          "internalType": "uint160",
          "name": "amount",
          "type": "uint160"
        }
      ],
      "name": "TokensTransferred",
      "type": "event"
    },
    {
      "inputs": [],
      "name": "PERMIT2",
      "outputs": [
        {
          "internalType": "contract IAllowanceTransfer",
          "name": "",
          "type": "address"
        }
      ],
      "stateMutability": "view",
      "type": "function"
    },
    {
      "inputs": [
        {
          "components": [
            {
              "components": [
                {
                  "internalType": "address",
                  "name": "token",
                  "type": "address"
                },
                {
                  "internalType": "uint160",
                  "name": "amount",
                  "type": "uint160"
                },
                {
                  "internalType": "uint48",
                  "name": "expiration",
                  "type": "uint48"
                },
                {
                  "internalType": "uint48",
                  "name": "nonce",
                  "type": "uint48"
                }
              ],
              "internalType": "struct IAllowanceTransfer.PermitDetails",
              "name": "details",
              "type": "tuple"
            },
            {
              "internalType": "address",
              "name": "spender",
              "type": "address"
            },
            {
              "internalType": "uint256",
              "name": "sigDeadline",
              "type": "uint256"
            }
          ],
          "internalType": "struct IAllowanceTransfer.PermitSingle",
          "name": "permitSingle",
          "type": "tuple"
        },
        {
          "internalType": "bytes",
          "name": "signature",
          "type": "bytes"
        },
        {
          "internalType": "address",
          "name": "owner",
          "type": "address"
        }
      ],
      "name": "validatePermit",
      "outputs": [],
      "stateMutability": "nonpayable",
      "type": "function"
    },
    {
      "inputs": [
        {
          "components": [
            {
              "components": [
                {
                  "internalType": "address",
                  "name": "token",
                  "type": "address"
                },
                {
                  "internalType": "uint160",
                  "name": "amount",
                  "type": "uint160"
                },
                {
                  "internalType": "uint48",
                  "name": "expiration",
                  "type": "uint48"
                },
                {
                  "internalType": "uint48",
                  "name": "nonce",
                  "type": "uint48"
                }
              ],
              "internalType": "struct IAllowanceTransfer.PermitDetails",
              "name": "details",
              "type": "tuple"
            },
            {
              "internalType": "address",
              "name": "spender",
              "type": "address"
            },
            {
              "internalType": "uint256",
              "name": "sigDeadline",
              "type": "uint256"
            }
          ],
          "internalType": "struct IAllowanceTransfer.PermitSingle",
          "name": "permitSingle",
          "type": "tuple"
        },
        {
          "internalType": "bytes",
          "name": "signature",
          "type": "bytes"
        },
        {
          "internalType": "address",
          "name": "owner",
          "type": "address"
        },
        {
          "internalType": "address",
          "name": "recipient",
          "type": "address"
        },
        {
          "internalType": "uint160",
          "name": "amount",
          "type": "uint160"
        }
      ],
      "name": "validatePermitAndTransfer",
      "outputs": [],
      "stateMutability": "nonpayable",
      "type": "function"
    }
  ],
  "bytecode": "0x6080604052348015600e575f5ffd5b506107c48061001c5f395ff3fe608060405234801561000f575f5ffd5b506004361061003f575f3560e01c80636afdd85014610043578063ce98139a14610075578063eff6d95e1461008a575b5f5ffd5b6100596e22d473030f116ddee9f6b43ac78ba381565b6040516001600160a01b03909116815260200160405180910390f35b610088610083366004610578565b61009d565b005b610088610098366004610603565b61041a565b6001600160a01b0382166100ec5760405162461bcd60e51b8152602060048201526011602482015270125b9d985b1a59081c9958da5c1a595b9d607a1b60448201526064015b60405180910390fd5b306001600160a01b038316036101445760405162461bcd60e51b815260206004820152601760248201527f43616e6e6f74207472616e7366657220746f2073656c6600000000000000000060448201526064016100e3565b5f816001600160a01b03161161018a5760405162461bcd60e51b815260206004820152600b60248201526a16995c9bc8185b5bdd5b9d60aa1b60448201526064016100e3565b61019a6040870160208801610667565b6001600160a01b0316816001600160a01b031611156101fb5760405162461bcd60e51b815260206004820152601860248201527f416d6f756e742065786365656473207065726d6974746564000000000000000060448201526064016100e3565b5f6102096020880188610667565b6001600160a01b03160361024f5760405162461bcd60e51b815260206004820152600d60248201526c24b73b30b634b2103a37b5b2b760991b60448201526064016100e3565b3061026060a0880160808901610667565b6001600160a01b0316146102a85760405162461bcd60e51b815260206004820152600f60248201526e24b73b30b634b21039b832b73232b960891b60448201526064016100e3565b6040516302b67b5760e41b81526e22d473030f116ddee9f6b43ac78ba390632b67b570906102e09086908a908a908a906004016106cb565b5f604051808303815f87803b1580156102f7575f5ffd5b505af1158015610309573d5f5f3e3d5ffd5b506e22d473030f116ddee9f6b43ac78ba392506336c785169150859050848461033560208c018c610667565b60405160e086901b6001600160e01b03191681526001600160a01b0394851660048201529284166024840152908316604483015290911660648201526084015f604051808303815f87803b15801561038b575f5ffd5b505af115801561039d573d5f5f3e3d5ffd5b506103af925050506020870187610667565b6001600160a01b0316826001600160a01b0316846001600160a01b03167f144dd933f2f778c1c74b636d1626785a75fcab84d70e58023131596c688366788460405161040a91906001600160a01b0391909116815260200190565b60405180910390a4505050505050565b6040516302b67b5760e41b81526e22d473030f116ddee9f6b43ac78ba390632b67b570906104529084908890889088906004016106cb565b5f604051808303815f87803b158015610469575f5ffd5b505af115801561047b573d5f5f3e3d5ffd5b506104909250505060a0850160808601610667565b6001600160a01b03166104a66020860186610667565b6001600160a01b039081169083167f660b4d6fde76223956da452a0f01864370af4e53949f6aa665669f54bad5bad06104e56040890160208a01610667565b6040516001600160a01b03909116815260200160405180910390a450505050565b5f60c08284031215610516575f5ffd5b50919050565b5f5f83601f84011261052c575f5ffd5b50813567ffffffffffffffff811115610543575f5ffd5b60208301915083602082850101111561055a575f5ffd5b9250929050565b6001600160a01b0381168114610575575f5ffd5b50565b5f5f5f5f5f5f610140878903121561058e575f5ffd5b6105988888610506565b955060c087013567ffffffffffffffff8111156105b3575f5ffd5b6105bf89828a0161051c565b90965094505060e08701356105d381610561565b92506101008701356105e481610561565b91506101208701356105f581610561565b809150509295509295509295565b5f5f5f5f6101008587031215610617575f5ffd5b6106218686610506565b935060c085013567ffffffffffffffff81111561063c575f5ffd5b6106488782880161051c565b90945092505060e085013561065c81610561565b939692955090935050565b5f60208284031215610677575f5ffd5b813561068281610561565b9392505050565b803565ffffffffffff8116811461069e575f5ffd5b919050565b81835281816020850137505f828201602090810191909152601f909101601f19169091010190565b6001600160a01b03851681525f84356106e381610561565b6001600160a01b031660208381019190915285013561070181610561565b6001600160a01b031660408381019190915265ffffffffffff90610726908701610689565b16606083015265ffffffffffff61073f60608701610689565b166080830152608085013561075381610561565b6001600160a01b031660a08381019190915285013560c083015261010060e0830181905261078490830184866106a3565b969550505050505056fea2646970667358221220dd65ceb3916ce3c1522c39ad991fca41d1e1f967c171e1c947d7fd579d968a2064736f6c634300081c0033",
  "linkReferences": {},
  "deployedLinkReferences": {},
  "immutableReferences": {},
  "inputSourceName": "project/contracts/chainlink_permit2.sol",
  "buildInfoId": "solc-0_8_28-89fb27dda5d1416212c351ce28dba2ca62a9ae97"
}